{
  "_format": "hh-sol-artifact-1",
  "contractName": "DAOValidator",
  "sourceName": "contracts/DAOValidator.sol",
  "abi": [
    {
      "inputs": [
        {
          "internalType": "address",
          "name": "_owner",
          "type": "address"
        },
        {
          "internalType": "address",
          "name": "_avatar",
          "type": "address"
        },
        {
          "internalType": "address",
          "name": "_target",
          "type": "address"
        },
        {
          "internalType": "address",
          "name": "_entrypoint",
          "type": "address"
        },
        {
          "internalType": "address",
          "name": "_votingToken",
          "type": "address"
        }
      ],
      "stateMutability": "nonpayable",
      "type": "constructor"
    },
    {
      "inputs": [
        {
          "internalType": "address",
          "name": "guard_",
          "type": "address"
        }
      ],
      "name": "NotIERC165Compliant",
      "type": "error"
    },
    {
      "inputs": [],
      "name": "SignerNotEligibleToVote",
      "type": "error"
    },
    {
      "anonymous": false,
      "inputs": [
        {
          "indexed": true,
          "internalType": "address",
          "name": "previousAvatar",
          "type": "address"
        },
        {
          "indexed": true,
          "internalType": "address",
          "name": "newAvatar",
          "type": "address"
        }
      ],
      "name": "AvatarSet",
      "type": "event"
    },
    {
      "anonymous": false,
      "inputs": [
        {
          "indexed": false,
          "internalType": "address",
          "name": "guard",
          "type": "address"
        }
      ],
      "name": "ChangedGuard",
      "type": "event"
    },
    {
      "anonymous": false,
      "inputs": [
        {
          "indexed": false,
          "internalType": "uint8",
          "name": "version",
          "type": "uint8"
        }
      ],
      "name": "Initialized",
      "type": "event"
    },
    {
      "anonymous": false,
      "inputs": [
        {
          "indexed": true,
          "internalType": "address",
          "name": "previousOwner",
          "type": "address"
        },
        {
          "indexed": true,
          "internalType": "address",
          "name": "newOwner",
          "type": "address"
        }
      ],
      "name": "OwnershipTransferred",
      "type": "event"
    },
    {
      "anonymous": false,
      "inputs": [
        {
          "indexed": true,
          "internalType": "address",
          "name": "previousTarget",
          "type": "address"
        },
        {
          "indexed": true,
          "internalType": "address",
          "name": "newTarget",
          "type": "address"
        }
      ],
      "name": "TargetSet",
      "type": "event"
    },
    {
      "inputs": [
        {
          "internalType": "address",
          "name": "",
          "type": "address"
        }
      ],
      "name": "accounting",
      "outputs": [
        {
          "internalType": "uint256",
          "name": "",
          "type": "uint256"
        }
      ],
      "stateMutability": "view",
      "type": "function"
    },
    {
      "inputs": [
        {
          "internalType": "address",
          "name": "_voter",
          "type": "address"
        }
      ],
      "name": "addSponsoredVoter",
      "outputs": [],
      "stateMutability": "nonpayable",
      "type": "function"
    },
    {
      "inputs": [
        {
          "internalType": "uint32",
          "name": "unstakeDelaySec",
          "type": "uint32"
        }
      ],
      "name": "addStake",
      "outputs": [],
      "stateMutability": "payable",
      "type": "function"
    },
    {
      "inputs": [],
      "name": "avatar",
      "outputs": [
        {
          "internalType": "address",
          "name": "",
          "type": "address"
        }
      ],
      "stateMutability": "view",
      "type": "function"
    },
    {
      "inputs": [
        {
          "internalType": "address",
          "name": "",
          "type": "address"
        }
      ],
      "name": "canVoteSponsored",
      "outputs": [
        {
          "internalType": "bool",
          "name": "",
          "type": "bool"
        }
      ],
      "stateMutability": "view",
      "type": "function"
    },
    {
      "inputs": [],
      "name": "deposit",
      "outputs": [],
      "stateMutability": "payable",
      "type": "function"
    },
    {
      "inputs": [],
      "name": "entryPoint",
      "outputs": [
        {
          "internalType": "contract IEntryPoint",
          "name": "",
          "type": "address"
        }
      ],
      "stateMutability": "view",
      "type": "function"
    },
    {
      "inputs": [],
      "name": "fundPaymaster",
      "outputs": [],
      "stateMutability": "payable",
      "type": "function"
    },
    {
      "inputs": [],
      "name": "getDeposit",
      "outputs": [
        {
          "internalType": "uint256",
          "name": "",
          "type": "uint256"
        }
      ],
      "stateMutability": "view",
      "type": "function"
    },
    {
      "inputs": [],
      "name": "getGuard",
      "outputs": [
        {
          "internalType": "address",
          "name": "_guard",
          "type": "address"
        }
      ],
      "stateMutability": "view",
      "type": "function"
    },
    {
      "inputs": [],
      "name": "getNonce",
      "outputs": [
        {
          "internalType": "uint256",
          "name": "",
          "type": "uint256"
        }
      ],
      "stateMutability": "view",
      "type": "function"
    },
    {
      "inputs": [],
      "name": "guard",
      "outputs": [
        {
          "internalType": "address",
          "name": "",
          "type": "address"
        }
      ],
      "stateMutability": "view",
      "type": "function"
    },
    {
      "inputs": [
        {
          "internalType": "uint256",
          "name": "",
          "type": "uint256"
        }
      ],
      "name": "hasVoted",
      "outputs": [
        {
          "internalType": "bool",
          "name": "",
          "type": "bool"
        }
      ],
      "stateMutability": "view",
      "type": "function"
    },
    {
      "inputs": [],
      "name": "owner",
      "outputs": [
        {
          "internalType": "address",
          "name": "",
          "type": "address"
        }
      ],
      "stateMutability": "view",
      "type": "function"
    },
    {
      "inputs": [
        {
          "internalType": "enum IPaymaster.PostOpMode",
          "name": "mode",
          "type": "uint8"
        },
        {
          "internalType": "bytes",
          "name": "context",
          "type": "bytes"
        },
        {
          "internalType": "uint256",
          "name": "actualGasCost",
          "type": "uint256"
        }
      ],
      "name": "postOp",
      "outputs": [],
      "stateMutability": "nonpayable",
      "type": "function"
    },
    {
      "inputs": [
        {
          "internalType": "address",
          "name": "_voter",
          "type": "address"
        }
      ],
      "name": "removeSponsoredVoter",
      "outputs": [],
      "stateMutability": "nonpayable",
      "type": "function"
    },
    {
      "inputs": [],
      "name": "renounceOwnership",
      "outputs": [],
      "stateMutability": "nonpayable",
      "type": "function"
    },
    {
      "inputs": [
        {
          "internalType": "address",
          "name": "_avatar",
          "type": "address"
        }
      ],
      "name": "setAvatar",
      "outputs": [],
      "stateMutability": "nonpayable",
      "type": "function"
    },
    {
      "inputs": [
        {
          "internalType": "address",
          "name": "_guard",
          "type": "address"
        }
      ],
      "name": "setGuard",
      "outputs": [],
      "stateMutability": "nonpayable",
      "type": "function"
    },
    {
      "inputs": [
        {
          "internalType": "address",
          "name": "_target",
          "type": "address"
        }
      ],
      "name": "setTarget",
      "outputs": [],
      "stateMutability": "nonpayable",
      "type": "function"
    },
    {
      "inputs": [
        {
          "internalType": "bytes",
          "name": "initParams",
          "type": "bytes"
        }
      ],
      "name": "setUp",
      "outputs": [],
      "stateMutability": "nonpayable",
      "type": "function"
    },
    {
      "inputs": [],
      "name": "target",
      "outputs": [
        {
          "internalType": "address",
          "name": "",
          "type": "address"
        }
      ],
      "stateMutability": "view",
      "type": "function"
    },
    {
      "inputs": [
        {
          "internalType": "address",
          "name": "newOwner",
          "type": "address"
        }
      ],
      "name": "transferOwnership",
      "outputs": [],
      "stateMutability": "nonpayable",
      "type": "function"
    },
    {
      "inputs": [],
      "name": "unlockStake",
      "outputs": [],
      "stateMutability": "nonpayable",
      "type": "function"
    },
    {
      "inputs": [
        {
          "components": [
            {
              "internalType": "address",
              "name": "sender",
              "type": "address"
            },
            {
              "internalType": "uint256",
              "name": "nonce",
              "type": "uint256"
            },
            {
              "internalType": "bytes",
              "name": "initCode",
              "type": "bytes"
            },
            {
              "internalType": "bytes",
              "name": "callData",
              "type": "bytes"
            },
            {
              "internalType": "uint256",
              "name": "callGasLimit",
              "type": "uint256"
            },
            {
              "internalType": "uint256",
              "name": "verificationGasLimit",
              "type": "uint256"
            },
            {
              "internalType": "uint256",
              "name": "preVerificationGas",
              "type": "uint256"
            },
            {
              "internalType": "uint256",
              "name": "maxFeePerGas",
              "type": "uint256"
            },
            {
              "internalType": "uint256",
              "name": "maxPriorityFeePerGas",
              "type": "uint256"
            },
            {
              "internalType": "bytes",
              "name": "paymasterAndData",
              "type": "bytes"
            },
            {
              "internalType": "bytes",
              "name": "signature",
              "type": "bytes"
            }
          ],
          "internalType": "struct UserOperation",
          "name": "userOp",
          "type": "tuple"
        },
        {
          "internalType": "bytes32",
          "name": "userOpHash",
          "type": "bytes32"
        },
        {
          "internalType": "uint256",
          "name": "maxCost",
          "type": "uint256"
        }
      ],
      "name": "validatePaymasterUserOp",
      "outputs": [
        {
          "internalType": "bytes",
          "name": "context",
          "type": "bytes"
        },
        {
          "internalType": "uint256",
          "name": "validationData",
          "type": "uint256"
        }
      ],
      "stateMutability": "nonpayable",
      "type": "function"
    },
    {
      "inputs": [
        {
          "components": [
            {
              "internalType": "address",
              "name": "sender",
              "type": "address"
            },
            {
              "internalType": "uint256",
              "name": "nonce",
              "type": "uint256"
            },
            {
              "internalType": "bytes",
              "name": "initCode",
              "type": "bytes"
            },
            {
              "internalType": "bytes",
              "name": "callData",
              "type": "bytes"
            },
            {
              "internalType": "uint256",
              "name": "callGasLimit",
              "type": "uint256"
            },
            {
              "internalType": "uint256",
              "name": "verificationGasLimit",
              "type": "uint256"
            },
            {
              "internalType": "uint256",
              "name": "preVerificationGas",
              "type": "uint256"
            },
            {
              "internalType": "uint256",
              "name": "maxFeePerGas",
              "type": "uint256"
            },
            {
              "internalType": "uint256",
              "name": "maxPriorityFeePerGas",
              "type": "uint256"
            },
            {
              "internalType": "bytes",
              "name": "paymasterAndData",
              "type": "bytes"
            },
            {
              "internalType": "bytes",
              "name": "signature",
              "type": "bytes"
            }
          ],
          "internalType": "struct UserOperation",
          "name": "userOp",
          "type": "tuple"
        },
        {
          "internalType": "bytes32",
          "name": "userOpHash",
          "type": "bytes32"
        },
        {
          "internalType": "uint256",
          "name": "missingAccountFunds",
          "type": "uint256"
        }
      ],
      "name": "validateUserOp",
      "outputs": [
        {
          "internalType": "uint256",
          "name": "validationData",
          "type": "uint256"
        }
      ],
      "stateMutability": "nonpayable",
      "type": "function"
    },
    {
      "inputs": [],
      "name": "votingToken",
      "outputs": [
        {
          "internalType": "contract IERC20",
          "name": "",
          "type": "address"
        }
      ],
      "stateMutability": "view",
      "type": "function"
    },
    {
      "inputs": [
        {
          "internalType": "address payable",
          "name": "withdrawAddress",
          "type": "address"
        }
      ],
      "name": "withdrawStake",
      "outputs": [],
      "stateMutability": "nonpayable",
      "type": "function"
    },
    {
      "inputs": [
        {
          "internalType": "address payable",
          "name": "withdrawAddress",
          "type": "address"
        },
        {
          "internalType": "uint256",
          "name": "amount",
          "type": "uint256"
        }
      ],
      "name": "withdrawTo",
      "outputs": [],
      "stateMutability": "nonpayable",
      "type": "function"
    }
  ],
  "bytecode": "0x60806040523480156200001157600080fd5b5060405162003ec438038062003ec4833981810160405281019062000037919062000873565b60008585858585604051602001620000549594939291906200090c565b604051602081830303815290604052905062000076816200008260201b60201c565b50505050505062000e74565b60008060019054906101000a900460ff16159050808015620000b45750600160008054906101000a900460ff1660ff16105b80620000f05750620000d130620004ee60201b620015bc1760201c565b158015620000ef5750600160008054906101000a900460ff1660ff16145b5b62000132576040517f08c379a00000000000000000000000000000000000000000000000000000000081526004016200012990620009f0565b60405180910390fd5b60016000806101000a81548160ff021916908360ff160217905550801562000170576001600060016101000a81548160ff0219169083151502179055505b6000806000806000868060200190518101906200018e919062000a57565b94509450945094509450620001a86200051160201b60201c565b600073ffffffffffffffffffffffffffffffffffffffff168473ffffffffffffffffffffffffffffffffffffffff1614156200021b576040517f08c379a0000000000000000000000000000000000000000000000000000000008152600401620002129062000b2f565b60405180910390fd5b600073ffffffffffffffffffffffffffffffffffffffff168373ffffffffffffffffffffffffffffffffffffffff1614156200028e576040517f08c379a0000000000000000000000000000000000000000000000000000000008152600401620002859062000ba1565b60405180910390fd5b600073ffffffffffffffffffffffffffffffffffffffff168273ffffffffffffffffffffffffffffffffffffffff16141562000301576040517f08c379a0000000000000000000000000000000000000000000000000000000008152600401620002f89062000c39565b60405180910390fd5b600073ffffffffffffffffffffffffffffffffffffffff168173ffffffffffffffffffffffffffffffffffffffff16141562000374576040517f08c379a00000000000000000000000000000000000000000000000000000000081526004016200036b9062000c39565b60405180910390fd5b83606660006101000a81548173ffffffffffffffffffffffffffffffffffffffff021916908373ffffffffffffffffffffffffffffffffffffffff16021790555082606760006101000a81548173ffffffffffffffffffffffffffffffffffffffff021916908373ffffffffffffffffffffffffffffffffffffffff16021790555081606860006101000a81548173ffffffffffffffffffffffffffffffffffffffff021916908373ffffffffffffffffffffffffffffffffffffffff16021790555080606960006101000a81548173ffffffffffffffffffffffffffffffffffffffff021916908373ffffffffffffffffffffffffffffffffffffffff16021790555062000489856200057560201b60201c565b50505050508015620004ea5760008060016101000a81548160ff0219169083151502179055507f7f26b83ff96e1f2b6a682f133852f6798a09c465da95921460cefb38474024986001604051620004e1919062000cb5565b60405180910390a15b5050565b6000808273ffffffffffffffffffffffffffffffffffffffff163b119050919050565b600060019054906101000a900460ff1662000563576040517f08c379a00000000000000000000000000000000000000000000000000000000081526004016200055a9062000d48565b60405180910390fd5b620005736200060c60201b60201c565b565b620005856200068060201b60201c565b600073ffffffffffffffffffffffffffffffffffffffff168173ffffffffffffffffffffffffffffffffffffffff161415620005f8576040517f08c379a0000000000000000000000000000000000000000000000000000000008152600401620005ef9062000de0565b60405180910390fd5b62000609816200071160201b60201c565b50565b600060019054906101000a900460ff166200065e576040517f08c379a0000000000000000000000000000000000000000000000000000000008152600401620006559062000d48565b60405180910390fd5b6200067e62000672620007d760201b60201c565b6200071160201b60201c565b565b62000690620007d760201b60201c565b73ffffffffffffffffffffffffffffffffffffffff16620006b6620007df60201b60201c565b73ffffffffffffffffffffffffffffffffffffffff16146200070f576040517f08c379a0000000000000000000000000000000000000000000000000000000008152600401620007069062000e52565b60405180910390fd5b565b6000603360009054906101000a900473ffffffffffffffffffffffffffffffffffffffff16905081603360006101000a81548173ffffffffffffffffffffffffffffffffffffffff021916908373ffffffffffffffffffffffffffffffffffffffff1602179055508173ffffffffffffffffffffffffffffffffffffffff168173ffffffffffffffffffffffffffffffffffffffff167f8be0079c531659141344cd1fd0a4f28419497f9722a3daafe3b4186f6b6457e060405160405180910390a35050565b600033905090565b6000603360009054906101000a900473ffffffffffffffffffffffffffffffffffffffff16905090565b600080fd5b600073ffffffffffffffffffffffffffffffffffffffff82169050919050565b60006200083b826200080e565b9050919050565b6200084d816200082e565b81146200085957600080fd5b50565b6000815190506200086d8162000842565b92915050565b600080600080600060a0868803121562000892576200089162000809565b5b6000620008a2888289016200085c565b9550506020620008b5888289016200085c565b9450506040620008c8888289016200085c565b9350506060620008db888289016200085c565b9250506080620008ee888289016200085c565b9150509295509295909350565b62000906816200082e565b82525050565b600060a082019050620009236000830188620008fb565b620009326020830187620008fb565b620009416040830186620008fb565b620009506060830185620008fb565b6200095f6080830184620008fb565b9695505050505050565b600082825260208201905092915050565b7f496e697469616c697a61626c653a20636f6e747261637420697320616c72656160008201527f647920696e697469616c697a6564000000000000000000000000000000000000602082015250565b6000620009d8602e8362000969565b9150620009e5826200097a565b604082019050919050565b6000602082019050818103600083015262000a0b81620009c9565b9050919050565b600062000a1f826200080e565b9050919050565b62000a318162000a12565b811462000a3d57600080fd5b50565b60008151905062000a518162000a26565b92915050565b600080600080600060a0868803121562000a765762000a7562000809565b5b600062000a868882890162000a40565b955050602062000a998882890162000a40565b945050604062000aac8882890162000a40565b935050606062000abf8882890162000a40565b925050608062000ad28882890162000a40565b9150509295509295909350565b7f4176617461722063616e206e6f74206265207a65726f20616464726573730000600082015250565b600062000b17601e8362000969565b915062000b248262000adf565b602082019050919050565b6000602082019050818103600083015262000b4a8162000b08565b9050919050565b7f5461726765742063616e206e6f74206265207a65726f20616464726573730000600082015250565b600062000b89601e8362000969565b915062000b968262000b51565b602082019050919050565b6000602082019050818103600083015262000bbc8162000b7a565b9050919050565b7f3433333720456e747279506f696e742063616e206e6f74206265207a65726f2060008201527f6164647265737300000000000000000000000000000000000000000000000000602082015250565b600062000c2160278362000969565b915062000c2e8262000bc3565b604082019050919050565b6000602082019050818103600083015262000c548162000c12565b9050919050565b6000819050919050565b600060ff82169050919050565b6000819050919050565b600062000c9d62000c9762000c918462000c5b565b62000c72565b62000c65565b9050919050565b62000caf8162000c7c565b82525050565b600060208201905062000ccc600083018462000ca4565b92915050565b7f496e697469616c697a61626c653a20636f6e7472616374206973206e6f74206960008201527f6e697469616c697a696e67000000000000000000000000000000000000000000602082015250565b600062000d30602b8362000969565b915062000d3d8262000cd2565b604082019050919050565b6000602082019050818103600083015262000d638162000d21565b9050919050565b7f4f776e61626c653a206e6577206f776e657220697320746865207a65726f206160008201527f6464726573730000000000000000000000000000000000000000000000000000602082015250565b600062000dc860268362000969565b915062000dd58262000d6a565b604082019050919050565b6000602082019050818103600083015262000dfb8162000db9565b9050919050565b7f4f776e61626c653a2063616c6c6572206973206e6f7420746865206f776e6572600082015250565b600062000e3a60208362000969565b915062000e478262000e02565b602082019050919050565b6000602082019050818103600083015262000e6d8162000e2b565b9050919050565b6130408062000e846000396000f3fe6080604052600436106101c15760003560e01c8063a4f9edbf116100f7578063c910638911610095578063e19a9dd911610064578063e19a9dd9146105a6578063ecca031f146105cf578063f2fde38b1461060c578063f465c77e14610635576101c1565b8063c91063891461051b578063d087d28814610546578063d0e30db014610571578063d4b839921461057b576101c1565b8063b0d691fe116100d1578063b0d691fe14610485578063bb9fe6bf146104b0578063c23a5cea146104c7578063c399ec88146104f0576101c1565b8063a4f9edbf14610408578063a9a2340914610431578063b03401231461045a576101c1565b8063715018a6116101645780638da5cb5b1161013e5780638da5cb5b146103595780639021022c14610384578063991edf3f1461038e5780639e64a441146103cb576101c1565b8063715018a6146102ee578063776d1a01146103055780637ceab3b11461032e576101c1565b8063205c2878116101a0578063205c287814610234578063260f559a1461025d5780633a871cdd146102865780635aef7de6146102c3576101c1565b8062201050146101c65780630396cb60146101ef578063086cfca81461020b575b600080fd5b3480156101d257600080fd5b506101ed60048036038101906101e89190611de7565b610673565b005b61020960048036038101906102049190611e50565b6106d6565b005b34801561021757600080fd5b50610232600480360381019061022d9190611de7565b61076f565b005b34801561024057600080fd5b5061025b60048036038101906102569190611ef1565b61083d565b005b34801561026957600080fd5b50610284600480360381019061027f9190611de7565b6108d8565b005b34801561029257600080fd5b506102ad60048036038101906102a89190611f8c565b61093b565b6040516102ba919061200a565b60405180910390f35b3480156102cf57600080fd5b506102d861096e565b6040516102e59190612034565b60405180910390f35b3480156102fa57600080fd5b50610303610994565b005b34801561031157600080fd5b5061032c60048036038101906103279190611de7565b6109a8565b005b34801561033a57600080fd5b50610343610a76565b6040516103509190612034565b60405180910390f35b34801561036557600080fd5b5061036e610a9c565b60405161037b9190612034565b60405180910390f35b61038c610ac6565b005b34801561039a57600080fd5b506103b560048036038101906103b09190611de7565b610b1e565b6040516103c2919061200a565b60405180910390f35b3480156103d757600080fd5b506103f260048036038101906103ed9190611de7565b610b36565b6040516103ff919061206a565b60405180910390f35b34801561041457600080fd5b5061042f600480360381019061042a91906121cb565b610b56565b005b34801561043d57600080fd5b5061045860048036038101906104539190612299565b610f8d565b005b34801561046657600080fd5b5061046f610fa7565b60405161047c919061236c565b60405180910390f35b34801561049157600080fd5b5061049a610fcd565b6040516104a791906123a8565b60405180910390f35b3480156104bc57600080fd5b506104c5610ff3565b005b3480156104d357600080fd5b506104ee60048036038101906104e991906123c3565b61107f565b005b3480156104fc57600080fd5b50610505611117565b604051610512919061200a565b60405180910390f35b34801561052757600080fd5b506105306111ba565b60405161053d9190612034565b60405180910390f35b34801561055257600080fd5b5061055b6111e4565b604051610568919061200a565b60405180910390f35b61057961128a565b005b34801561058757600080fd5b5061059061131a565b60405161059d9190612034565b60405180910390f35b3480156105b257600080fd5b506105cd60048036038101906105c89190611de7565b611340565b005b3480156105db57600080fd5b506105f660048036038101906105f191906123f0565b6114f5565b604051610603919061206a565b60405180910390f35b34801561061857600080fd5b50610633600480360381019061062e9190611de7565b611515565b005b34801561064157600080fd5b5061065c60048036038101906106579190611f8c565b611599565b60405161066a9291906124a5565b60405180910390f35b61067b6115df565b6000606a60008373ffffffffffffffffffffffffffffffffffffffff1673ffffffffffffffffffffffffffffffffffffffff16815260200190815260200160002060006101000a81548160ff02191690831515021790555050565b6106de6115df565b606860009054906101000a900473ffffffffffffffffffffffffffffffffffffffff1673ffffffffffffffffffffffffffffffffffffffff16630396cb6034836040518363ffffffff1660e01b815260040161073a91906124e4565b6000604051808303818588803b15801561075357600080fd5b505af1158015610767573d6000803e3d6000fd5b505050505050565b6107776115df565b6000606660009054906101000a900473ffffffffffffffffffffffffffffffffffffffff16905081606660006101000a81548173ffffffffffffffffffffffffffffffffffffffff021916908373ffffffffffffffffffffffffffffffffffffffff1602179055508173ffffffffffffffffffffffffffffffffffffffff168173ffffffffffffffffffffffffffffffffffffffff167f52ae88b092de36f87fb43fe794eb1381023b9c1bce563a871154022c63dce34260405160405180910390a35050565b6108456115df565b606860009054906101000a900473ffffffffffffffffffffffffffffffffffffffff1673ffffffffffffffffffffffffffffffffffffffff1663205c287883836040518363ffffffff1660e01b81526004016108a292919061250e565b600060405180830381600087803b1580156108bc57600080fd5b505af11580156108d0573d6000803e3d6000fd5b505050505050565b6108e06115df565b6001606a60008373ffffffffffffffffffffffffffffffffffffffff1673ffffffffffffffffffffffffffffffffffffffff16815260200190815260200160002060006101000a81548160ff02191690831515021790555050565b600061094561165d565b61094f84846116ef565b905061095e84602001356117d0565b610967826117d3565b9392505050565b606660009054906101000a900473ffffffffffffffffffffffffffffffffffffffff1681565b61099c6115df565b6109a6600061186f565b565b6109b06115df565b6000606760009054906101000a900473ffffffffffffffffffffffffffffffffffffffff16905081606760006101000a81548173ffffffffffffffffffffffffffffffffffffffff021916908373ffffffffffffffffffffffffffffffffffffffff1602179055508173ffffffffffffffffffffffffffffffffffffffff168173ffffffffffffffffffffffffffffffffffffffff167f90cc2f570a6eb594b1580ea3e41247d2d73a55281889e86bd4ec2fc29c7e62d660405160405180910390a35050565b606560009054906101000a900473ffffffffffffffffffffffffffffffffffffffff1681565b6000603360009054906101000a900473ffffffffffffffffffffffffffffffffffffffff16905090565b34606c60003373ffffffffffffffffffffffffffffffffffffffff1673ffffffffffffffffffffffffffffffffffffffff1681526020019081526020016000206000828254610b159190612566565b92505081905550565b606c6020528060005260406000206000915090505481565b606a6020528060005260406000206000915054906101000a900460ff1681565b60008060019054906101000a900460ff16159050808015610b875750600160008054906101000a900460ff1660ff16105b80610bb45750610b96306115bc565b158015610bb35750600160008054906101000a900460ff1660ff16145b5b610bf3576040517f08c379a0000000000000000000000000000000000000000000000000000000008152600401610bea9061263f565b60405180910390fd5b60016000806101000a81548160ff021916908360ff1602179055508015610c30576001600060016101000a81548160ff0219169083151502179055505b600080600080600086806020019051810190610c4c9190612674565b94509450945094509450610c5e611935565b600073ffffffffffffffffffffffffffffffffffffffff168473ffffffffffffffffffffffffffffffffffffffff161415610cce576040517f08c379a0000000000000000000000000000000000000000000000000000000008152600401610cc59061273b565b60405180910390fd5b600073ffffffffffffffffffffffffffffffffffffffff168373ffffffffffffffffffffffffffffffffffffffff161415610d3e576040517f08c379a0000000000000000000000000000000000000000000000000000000008152600401610d35906127a7565b60405180910390fd5b600073ffffffffffffffffffffffffffffffffffffffff168273ffffffffffffffffffffffffffffffffffffffff161415610dae576040517f08c379a0000000000000000000000000000000000000000000000000000000008152600401610da590612839565b60405180910390fd5b600073ffffffffffffffffffffffffffffffffffffffff168173ffffffffffffffffffffffffffffffffffffffff161415610e1e576040517f08c379a0000000000000000000000000000000000000000000000000000000008152600401610e1590612839565b60405180910390fd5b83606660006101000a81548173ffffffffffffffffffffffffffffffffffffffff021916908373ffffffffffffffffffffffffffffffffffffffff16021790555082606760006101000a81548173ffffffffffffffffffffffffffffffffffffffff021916908373ffffffffffffffffffffffffffffffffffffffff16021790555081606860006101000a81548173ffffffffffffffffffffffffffffffffffffffff021916908373ffffffffffffffffffffffffffffffffffffffff16021790555080606960006101000a81548173ffffffffffffffffffffffffffffffffffffffff021916908373ffffffffffffffffffffffffffffffffffffffff160217905550610f2b85611515565b50505050508015610f895760008060016101000a81548160ff0219169083151502179055507f7f26b83ff96e1f2b6a682f133852f6798a09c465da95921460cefb38474024986001604051610f8091906128a1565b60405180910390a15b5050565b610f9561165d565b610fa18484848461198e565b50505050565b606960009054906101000a900473ffffffffffffffffffffffffffffffffffffffff1681565b606860009054906101000a900473ffffffffffffffffffffffffffffffffffffffff1681565b610ffb6115df565b606860009054906101000a900473ffffffffffffffffffffffffffffffffffffffff1673ffffffffffffffffffffffffffffffffffffffff1663bb9fe6bf6040518163ffffffff1660e01b8152600401600060405180830381600087803b15801561106557600080fd5b505af1158015611079573d6000803e3d6000fd5b50505050565b6110876115df565b606860009054906101000a900473ffffffffffffffffffffffffffffffffffffffff1673ffffffffffffffffffffffffffffffffffffffff1663c23a5cea826040518263ffffffff1660e01b81526004016110e291906128bc565b600060405180830381600087803b1580156110fc57600080fd5b505af1158015611110573d6000803e3d6000fd5b5050505050565b6000606860009054906101000a900473ffffffffffffffffffffffffffffffffffffffff1673ffffffffffffffffffffffffffffffffffffffff166370a08231306040518263ffffffff1660e01b81526004016111749190612034565b602060405180830381865afa158015611191573d6000803e3d6000fd5b505050506040513d601f19601f820116820180604052508101906111b591906128ec565b905090565b6000606560009054906101000a900473ffffffffffffffffffffffffffffffffffffffff16905090565b6000606860009054906101000a900473ffffffffffffffffffffffffffffffffffffffff1673ffffffffffffffffffffffffffffffffffffffff166335567e1a3060006040518363ffffffff1660e01b8152600401611244929190612978565b602060405180830381865afa158015611261573d6000803e3d6000fd5b505050506040513d601f19601f8201168201806040525081019061128591906128ec565b905090565b606860009054906101000a900473ffffffffffffffffffffffffffffffffffffffff1673ffffffffffffffffffffffffffffffffffffffff1663b760faf934306040518363ffffffff1660e01b81526004016112e69190612034565b6000604051808303818588803b1580156112ff57600080fd5b505af1158015611313573d6000803e3d6000fd5b5050505050565b606760009054906101000a900473ffffffffffffffffffffffffffffffffffffffff1681565b6113486115df565b600073ffffffffffffffffffffffffffffffffffffffff168173ffffffffffffffffffffffffffffffffffffffff1614611458578073ffffffffffffffffffffffffffffffffffffffff166301ffc9a77fe6d7a83a000000000000000000000000000000000000000000000000000000006040518263ffffffff1660e01b81526004016113d591906129dc565b602060405180830381865afa1580156113f2573d6000803e3d6000fd5b505050506040513d601f19601f820116820180604052508101906114169190612a23565b61145757806040517fb16ea67e00000000000000000000000000000000000000000000000000000000815260040161144e9190612034565b60405180910390fd5b5b80606560006101000a81548173ffffffffffffffffffffffffffffffffffffffff021916908373ffffffffffffffffffffffffffffffffffffffff1602179055507f1151116914515bc0891ff9047a6cb32cf902546f83066499bcf8ba33d2353fa2606560009054906101000a900473ffffffffffffffffffffffffffffffffffffffff166040516114ea9190612034565b60405180910390a150565b606b6020528060005260406000206000915054906101000a900460ff1681565b61151d6115df565b600073ffffffffffffffffffffffffffffffffffffffff168173ffffffffffffffffffffffffffffffffffffffff16141561158d576040517f08c379a000000000000000000000000000000000000000000000000000000000815260040161158490612ac2565b60405180910390fd5b6115968161186f565b50565b606060006115a561165d565b6115b08585856119c9565b91509150935093915050565b6000808273ffffffffffffffffffffffffffffffffffffffff163b119050919050565b6115e7611a12565b73ffffffffffffffffffffffffffffffffffffffff16611605610a9c565b73ffffffffffffffffffffffffffffffffffffffff161461165b576040517f08c379a000000000000000000000000000000000000000000000000000000000815260040161165290612b2e565b60405180910390fd5b565b606860009054906101000a900473ffffffffffffffffffffffffffffffffffffffff1673ffffffffffffffffffffffffffffffffffffffff163373ffffffffffffffffffffffffffffffffffffffff16146116ed576040517f08c379a00000000000000000000000000000000000000000000000000000000081526004016116e490612b9a565b60405180910390fd5b565b6000806116fb83611a1a565b90506000611765858061014001906117139190612bc9565b8080601f016020809104026020016040519081016040528093929190818152602001838380828437600081840152601f19601f8201169050808301925050505050505083611a4a90919063ffffffff16565b9050606a60008273ffffffffffffffffffffffffffffffffffffffff1673ffffffffffffffffffffffffffffffffffffffff16815260200190815260200160002060009054906101000a900460ff166117c3576001925050506117ca565b6000925050505b92915050565b50565b6000811461186c5760003373ffffffffffffffffffffffffffffffffffffffff16827fffffffffffffffffffffffffffffffffffffffffffffffffffffffffffffffff9060405161182390612c5d565b600060405180830381858888f193505050503d8060008114611861576040519150601f19603f3d011682016040523d82523d6000602084013e611866565b606091505b50509050505b50565b6000603360009054906101000a900473ffffffffffffffffffffffffffffffffffffffff16905081603360006101000a81548173ffffffffffffffffffffffffffffffffffffffff021916908373ffffffffffffffffffffffffffffffffffffffff1602179055508173ffffffffffffffffffffffffffffffffffffffff168173ffffffffffffffffffffffffffffffffffffffff167f8be0079c531659141344cd1fd0a4f28419497f9722a3daafe3b4186f6b6457e060405160405180910390a35050565b600060019054906101000a900460ff16611984576040517f08c379a000000000000000000000000000000000000000000000000000000000815260040161197b90612ce4565b60405180910390fd5b61198c611a71565b565b6040517f08c379a00000000000000000000000000000000000000000000000000000000081526004016119c090612d50565b60405180910390fd5b6060600060016040518060400160405280600381526020017f30783000000000000000000000000000000000000000000000000000000000008152509091509150935093915050565b600033905090565b600081604051602001611a2d9190612de8565b604051602081830303815290604052805190602001209050919050565b6000806000611a598585611ad2565b91509150611a6681611b24565b819250505092915050565b600060019054906101000a900460ff16611ac0576040517f08c379a0000000000000000000000000000000000000000000000000000000008152600401611ab790612ce4565b60405180910390fd5b611ad0611acb611a12565b61186f565b565b600080604183511415611b145760008060006020860151925060408601519150606086015160001a9050611b0887828585611c92565b94509450505050611b1d565b60006002915091505b9250929050565b60006004811115611b3857611b37612e0e565b5b816004811115611b4b57611b4a612e0e565b5b1415611b5657611c8f565b60016004811115611b6a57611b69612e0e565b5b816004811115611b7d57611b7c612e0e565b5b1415611bbe576040517f08c379a0000000000000000000000000000000000000000000000000000000008152600401611bb590612e89565b60405180910390fd5b60026004811115611bd257611bd1612e0e565b5b816004811115611be557611be4612e0e565b5b1415611c26576040517f08c379a0000000000000000000000000000000000000000000000000000000008152600401611c1d90612ef5565b60405180910390fd5b60036004811115611c3a57611c39612e0e565b5b816004811115611c4d57611c4c612e0e565b5b1415611c8e576040517f08c379a0000000000000000000000000000000000000000000000000000000008152600401611c8590612f87565b60405180910390fd5b5b50565b6000807f7fffffffffffffffffffffffffffffff5d576e7357a4501ddfe92f46681b20a08360001c1115611ccd576000600391509150611d6c565b600060018787878760405160008152602001604052604051611cf29493929190612fc5565b6020604051602081039080840390855afa158015611d14573d6000803e3d6000fd5b505050602060405103519050600073ffffffffffffffffffffffffffffffffffffffff168173ffffffffffffffffffffffffffffffffffffffff161415611d6357600060019250925050611d6c565b80600092509250505b94509492505050565b6000604051905090565b600080fd5b600080fd5b600073ffffffffffffffffffffffffffffffffffffffff82169050919050565b6000611db482611d89565b9050919050565b611dc481611da9565b8114611dcf57600080fd5b50565b600081359050611de181611dbb565b92915050565b600060208284031215611dfd57611dfc611d7f565b5b6000611e0b84828501611dd2565b91505092915050565b600063ffffffff82169050919050565b611e2d81611e14565b8114611e3857600080fd5b50565b600081359050611e4a81611e24565b92915050565b600060208284031215611e6657611e65611d7f565b5b6000611e7484828501611e3b565b91505092915050565b6000611e8882611d89565b9050919050565b611e9881611e7d565b8114611ea357600080fd5b50565b600081359050611eb581611e8f565b92915050565b6000819050919050565b611ece81611ebb565b8114611ed957600080fd5b50565b600081359050611eeb81611ec5565b92915050565b60008060408385031215611f0857611f07611d7f565b5b6000611f1685828601611ea6565b9250506020611f2785828601611edc565b9150509250929050565b600080fd5b60006101608284031215611f4d57611f4c611f31565b5b81905092915050565b6000819050919050565b611f6981611f56565b8114611f7457600080fd5b50565b600081359050611f8681611f60565b92915050565b600080600060608486031215611fa557611fa4611d7f565b5b600084013567ffffffffffffffff811115611fc357611fc2611d84565b5b611fcf86828701611f36565b9350506020611fe086828701611f77565b9250506040611ff186828701611edc565b9150509250925092565b61200481611ebb565b82525050565b600060208201905061201f6000830184611ffb565b92915050565b61202e81611da9565b82525050565b60006020820190506120496000830184612025565b92915050565b60008115159050919050565b6120648161204f565b82525050565b600060208201905061207f600083018461205b565b92915050565b600080fd5b600080fd5b6000601f19601f8301169050919050565b7f4e487b7100000000000000000000000000000000000000000000000000000000600052604160045260246000fd5b6120d88261208f565b810181811067ffffffffffffffff821117156120f7576120f66120a0565b5b80604052505050565b600061210a611d75565b905061211682826120cf565b919050565b600067ffffffffffffffff821115612136576121356120a0565b5b61213f8261208f565b9050602081019050919050565b82818337600083830152505050565b600061216e6121698461211b565b612100565b90508281526020810184848401111561218a5761218961208a565b5b61219584828561214c565b509392505050565b600082601f8301126121b2576121b1612085565b5b81356121c284826020860161215b565b91505092915050565b6000602082840312156121e1576121e0611d7f565b5b600082013567ffffffffffffffff8111156121ff576121fe611d84565b5b61220b8482850161219d565b91505092915050565b6003811061222157600080fd5b50565b60008135905061223381612214565b92915050565b600080fd5b600080fd5b60008083601f84011261225957612258612085565b5b8235905067ffffffffffffffff81111561227657612275612239565b5b6020830191508360018202830111156122925761229161223e565b5b9250929050565b600080600080606085870312156122b3576122b2611d7f565b5b60006122c187828801612224565b945050602085013567ffffffffffffffff8111156122e2576122e1611d84565b5b6122ee87828801612243565b9350935050604061230187828801611edc565b91505092959194509250565b6000819050919050565b600061233261232d61232884611d89565b61230d565b611d89565b9050919050565b600061234482612317565b9050919050565b600061235682612339565b9050919050565b6123668161234b565b82525050565b6000602082019050612381600083018461235d565b92915050565b600061239282612339565b9050919050565b6123a281612387565b82525050565b60006020820190506123bd6000830184612399565b92915050565b6000602082840312156123d9576123d8611d7f565b5b60006123e784828501611ea6565b91505092915050565b60006020828403121561240657612405611d7f565b5b600061241484828501611edc565b91505092915050565b600081519050919050565b600082825260208201905092915050565b60005b8381101561245757808201518184015260208101905061243c565b83811115612466576000848401525b50505050565b60006124778261241d565b6124818185612428565b9350612491818560208601612439565b61249a8161208f565b840191505092915050565b600060408201905081810360008301526124bf818561246c565b90506124ce6020830184611ffb565b9392505050565b6124de81611e14565b82525050565b60006020820190506124f960008301846124d5565b92915050565b61250881611e7d565b82525050565b600060408201905061252360008301856124ff565b6125306020830184611ffb565b9392505050565b7f4e487b7100000000000000000000000000000000000000000000000000000000600052601160045260246000fd5b600061257182611ebb565b915061257c83611ebb565b9250827fffffffffffffffffffffffffffffffffffffffffffffffffffffffffffffffff038211156125b1576125b0612537565b5b828201905092915050565b600082825260208201905092915050565b7f496e697469616c697a61626c653a20636f6e747261637420697320616c72656160008201527f647920696e697469616c697a6564000000000000000000000000000000000000602082015250565b6000612629602e836125bc565b9150612634826125cd565b604082019050919050565b600060208201905081810360008301526126588161261c565b9050919050565b60008151905061266e81611e8f565b92915050565b600080600080600060a086880312156126905761268f611d7f565b5b600061269e8882890161265f565b95505060206126af8882890161265f565b94505060406126c08882890161265f565b93505060606126d18882890161265f565b92505060806126e28882890161265f565b9150509295509295909350565b7f4176617461722063616e206e6f74206265207a65726f20616464726573730000600082015250565b6000612725601e836125bc565b9150612730826126ef565b602082019050919050565b6000602082019050818103600083015261275481612718565b9050919050565b7f5461726765742063616e206e6f74206265207a65726f20616464726573730000600082015250565b6000612791601e836125bc565b915061279c8261275b565b602082019050919050565b600060208201905081810360008301526127c081612784565b9050919050565b7f3433333720456e747279506f696e742063616e206e6f74206265207a65726f2060008201527f6164647265737300000000000000000000000000000000000000000000000000602082015250565b60006128236027836125bc565b915061282e826127c7565b604082019050919050565b6000602082019050818103600083015261285281612816565b9050919050565b6000819050919050565b600060ff82169050919050565b600061288b61288661288184612859565b61230d565b612863565b9050919050565b61289b81612870565b82525050565b60006020820190506128b66000830184612892565b92915050565b60006020820190506128d160008301846124ff565b92915050565b6000815190506128e681611ec5565b92915050565b60006020828403121561290257612901611d7f565b5b6000612910848285016128d7565b91505092915050565b6000819050919050565b600077ffffffffffffffffffffffffffffffffffffffffffffffff82169050919050565b600061296261295d61295884612919565b61230d565b612923565b9050919050565b61297281612947565b82525050565b600060408201905061298d6000830185612025565b61299a6020830184612969565b9392505050565b60007fffffffff0000000000000000000000000000000000000000000000000000000082169050919050565b6129d6816129a1565b82525050565b60006020820190506129f160008301846129cd565b92915050565b612a008161204f565b8114612a0b57600080fd5b50565b600081519050612a1d816129f7565b92915050565b600060208284031215612a3957612a38611d7f565b5b6000612a4784828501612a0e565b91505092915050565b7f4f776e61626c653a206e6577206f776e657220697320746865207a65726f206160008201527f6464726573730000000000000000000000000000000000000000000000000000602082015250565b6000612aac6026836125bc565b9150612ab782612a50565b604082019050919050565b60006020820190508181036000830152612adb81612a9f565b9050919050565b7f4f776e61626c653a2063616c6c6572206973206e6f7420746865206f776e6572600082015250565b6000612b186020836125bc565b9150612b2382612ae2565b602082019050919050565b60006020820190508181036000830152612b4781612b0b565b9050919050565b7f6163636f756e743a206e6f742066726f6d20456e747279506f696e7400000000600082015250565b6000612b84601c836125bc565b9150612b8f82612b4e565b602082019050919050565b60006020820190508181036000830152612bb381612b77565b9050919050565b600080fd5b600080fd5b600080fd5b60008083356001602003843603038112612be657612be5612bba565b5b80840192508235915067ffffffffffffffff821115612c0857612c07612bbf565b5b602083019250600182023603831315612c2457612c23612bc4565b5b509250929050565b600081905092915050565b50565b6000612c47600083612c2c565b9150612c5282612c37565b600082019050919050565b6000612c6882612c3a565b9150819050919050565b7f496e697469616c697a61626c653a20636f6e7472616374206973206e6f74206960008201527f6e697469616c697a696e67000000000000000000000000000000000000000000602082015250565b6000612cce602b836125bc565b9150612cd982612c72565b604082019050919050565b60006020820190508181036000830152612cfd81612cc1565b9050919050565b7f6d757374206f7665727269646500000000000000000000000000000000000000600082015250565b6000612d3a600d836125bc565b9150612d4582612d04565b602082019050919050565b60006020820190508181036000830152612d6981612d2d565b9050919050565b600081905092915050565b7f19457468657265756d205369676e6564204d6573736167653a0a333200000000600082015250565b6000612db1601c83612d70565b9150612dbc82612d7b565b601c82019050919050565b6000819050919050565b612de2612ddd82611f56565b612dc7565b82525050565b6000612df382612da4565b9150612dff8284612dd1565b60208201915081905092915050565b7f4e487b7100000000000000000000000000000000000000000000000000000000600052602160045260246000fd5b7f45434453413a20696e76616c6964207369676e61747572650000000000000000600082015250565b6000612e736018836125bc565b9150612e7e82612e3d565b602082019050919050565b60006020820190508181036000830152612ea281612e66565b9050919050565b7f45434453413a20696e76616c6964207369676e6174757265206c656e67746800600082015250565b6000612edf601f836125bc565b9150612eea82612ea9565b602082019050919050565b60006020820190508181036000830152612f0e81612ed2565b9050919050565b7f45434453413a20696e76616c6964207369676e6174757265202773272076616c60008201527f7565000000000000000000000000000000000000000000000000000000000000602082015250565b6000612f716022836125bc565b9150612f7c82612f15565b604082019050919050565b60006020820190508181036000830152612fa081612f64565b9050919050565b612fb081611f56565b82525050565b612fbf81612863565b82525050565b6000608082019050612fda6000830187612fa7565b612fe76020830186612fb6565b612ff46040830185612fa7565b6130016060830184612fa7565b9594505050505056fea264697066735822122082d5babb5da8088aa438a5a034e3f4a7173c1310041117c4449e629d78ed269b64736f6c634300080c0033",
  "linkReferences": {},
  "deployedLinkReferences": {}
}