{
  "_format": "hh-sol-artifact-1",
  "contractName": "MockOZ",
  "sourceName": "contracts/test/MockOZ.sol",
  "abi": [
    {
      "inputs": [],
      "stateMutability": "nonpayable",
      "type": "constructor"
    },
    {
      "inputs": [],
      "name": "BALLOT_TYPEHASH",
      "outputs": [
        {
          "internalType": "bytes32",
          "name": "",
          "type": "bytes32"
        }
      ],
      "stateMutability": "view",
      "type": "function"
    },
    {
      "inputs": [
        {
          "internalType": "uint256",
          "name": "proposalId",
          "type": "uint256"
        },
        {
          "internalType": "address",
          "name": "account",
          "type": "address"
        },
        {
          "internalType": "uint8",
          "name": "support",
          "type": "uint8"
        },
        {
          "internalType": "string",
          "name": "reason",
          "type": "string"
        }
      ],
      "name": "castVote",
      "outputs": [],
      "stateMutability": "nonpayable",
      "type": "function"
    },
    {
      "inputs": [
        {
          "internalType": "uint256",
          "name": "proposalId",
          "type": "uint256"
        },
        {
          "internalType": "uint8",
          "name": "support",
          "type": "uint8"
        },
        {
          "internalType": "uint8",
          "name": "v",
          "type": "uint8"
        },
        {
          "internalType": "bytes32",
          "name": "r",
          "type": "bytes32"
        },
        {
          "internalType": "bytes32",
          "name": "s",
          "type": "bytes32"
        }
      ],
      "name": "castVoteBySig",
      "outputs": [],
      "stateMutability": "nonpayable",
      "type": "function"
    },
    {
      "inputs": [
        {
          "internalType": "address",
          "name": "",
          "type": "address"
        }
      ],
      "name": "hasVoted",
      "outputs": [
        {
          "internalType": "bool",
          "name": "",
          "type": "bool"
        }
      ],
      "stateMutability": "view",
      "type": "function"
    },
    {
      "inputs": [],
      "name": "version",
      "outputs": [
        {
          "internalType": "string",
          "name": "",
          "type": "string"
        }
      ],
      "stateMutability": "view",
      "type": "function"
    }
  ],
  "bytecode": "0x6101406040526040518060400160405280600481526020017f7465737400000000000000000000000000000000000000000000000000000000815250600190805190602001906200005292919062000235565b503480156200006057600080fd5b5060018054620000709062000314565b80601f01602080910402602001604051908101604052809291908181526020018280546200009e9062000314565b8015620000ef5780601f10620000c357610100808354040283529160200191620000ef565b820191906000526020600020905b815481529060010190602001808311620000d157829003601f168201915b505050505062000104620001bc60201b60201c565b60008280519060200120905060008280519060200120905060007f8b73c3c69bb8fe3d512ecc4cf759cc79239f7b179b0ffacaa9a75d522b39400f90508260e081815250508161010081815250504660a081815250506200016d818484620001f960201b60201c565b608081815250503073ffffffffffffffffffffffffffffffffffffffff1660c08173ffffffffffffffffffffffffffffffffffffffff1681525050806101208181525050505050505062000422565b60606040518060400160405280600181526020017f3100000000000000000000000000000000000000000000000000000000000000815250905090565b6000838383463060405160200162000216959493929190620003c5565b6040516020818303038152906040528051906020012090509392505050565b828054620002439062000314565b90600052602060002090601f016020900481019282620002675760008555620002b3565b82601f106200028257805160ff1916838001178555620002b3565b82800160010185558215620002b3579182015b82811115620002b257825182559160200191906001019062000295565b5b509050620002c29190620002c6565b5090565b5b80821115620002e1576000816000905550600101620002c7565b5090565b7f4e487b7100000000000000000000000000000000000000000000000000000000600052602260045260246000fd5b600060028204905060018216806200032d57607f821691505b60208210811415620003445762000343620002e5565b5b50919050565b6000819050919050565b6200035f816200034a565b82525050565b6000819050919050565b6200037a8162000365565b82525050565b600073ffffffffffffffffffffffffffffffffffffffff82169050919050565b6000620003ad8262000380565b9050919050565b620003bf81620003a0565b82525050565b600060a082019050620003dc600083018862000354565b620003eb602083018762000354565b620003fa604083018662000354565b6200040960608301856200036f565b620004186080830184620003b4565b9695505050505050565b60805160a05160c05160e0516101005161012051610e8c6200047260003960006103560152600061039801526000610377015260006102ac015260006103020152600061032b0152610e8c6000f3fe608060405234801561001057600080fd5b50600436106100575760003560e01c806309eef43e1461005c5780633bccf4fd1461008c57806354fd4d50146100a8578063dd063f90146100c6578063deaaa7cc146100e2575b600080fd5b610076600480360381019061007191906106f2565b610100565b604051610083919061073a565b60405180910390f35b6100a660048036038101906100a191906107fa565b610120565b005b6100b06101a5565b6040516100bd919061090e565b60405180910390f35b6100e060048036038101906100db9190610a65565b6101e2565b005b6100ea61023f565b6040516100f79190610af7565b60405180910390f35b60006020528060005260406000206000915054906101000a900460ff1681565b60006101806101787f150214d74d59b7d1e90c73fc22ef3d991dd0a76b046543d4d80ab92d2a50328f888860405160200161015d93929190610b30565b60405160208183030381529060405280519060200120610263565b85858561027d565b905061019d868287604051806020016040528060008152506101e2565b505050505050565b60606040518060400160405280600181526020017f3100000000000000000000000000000000000000000000000000000000000000815250905090565b60016000808573ffffffffffffffffffffffffffffffffffffffff1673ffffffffffffffffffffffffffffffffffffffff16815260200190815260200160002060006101000a81548160ff02191690831515021790555050505050565b7f150214d74d59b7d1e90c73fc22ef3d991dd0a76b046543d4d80ab92d2a50328f81565b60006102766102706102a8565b836103c2565b9050919050565b600080600061028e878787876103f5565b9150915061029b816104d8565b8192505050949350505050565b60007f000000000000000000000000000000000000000000000000000000000000000073ffffffffffffffffffffffffffffffffffffffff163073ffffffffffffffffffffffffffffffffffffffff1614801561032457507f000000000000000000000000000000000000000000000000000000000000000046145b15610351577f000000000000000000000000000000000000000000000000000000000000000090506103bf565b6103bc7f00000000000000000000000000000000000000000000000000000000000000007f00000000000000000000000000000000000000000000000000000000000000007f0000000000000000000000000000000000000000000000000000000000000000610646565b90505b90565b600082826040516020016103d7929190610bdf565b60405160208183030381529060405280519060200120905092915050565b6000807f7fffffffffffffffffffffffffffffff5d576e7357a4501ddfe92f46681b20a08360001c11156104305760006003915091506104cf565b6000600187878787604051600081526020016040526040516104559493929190610c16565b6020604051602081039080840390855afa158015610477573d6000803e3d6000fd5b505050602060405103519050600073ffffffffffffffffffffffffffffffffffffffff168173ffffffffffffffffffffffffffffffffffffffff1614156104c6576000600192509250506104cf565b80600092509250505b94509492505050565b600060048111156104ec576104eb610c5b565b5b8160048111156104ff576104fe610c5b565b5b141561050a57610643565b6001600481111561051e5761051d610c5b565b5b81600481111561053157610530610c5b565b5b1415610572576040517f08c379a000000000000000000000000000000000000000000000000000000000815260040161056990610cd6565b60405180910390fd5b6002600481111561058657610585610c5b565b5b81600481111561059957610598610c5b565b5b14156105da576040517f08c379a00000000000000000000000000000000000000000000000000000000081526004016105d190610d42565b60405180910390fd5b600360048111156105ee576105ed610c5b565b5b81600481111561060157610600610c5b565b5b1415610642576040517f08c379a000000000000000000000000000000000000000000000000000000000815260040161063990610dd4565b60405180910390fd5b5b50565b60008383834630604051602001610661959493929190610e03565b6040516020818303038152906040528051906020012090509392505050565b6000604051905090565b600080fd5b600080fd5b600073ffffffffffffffffffffffffffffffffffffffff82169050919050565b60006106bf82610694565b9050919050565b6106cf816106b4565b81146106da57600080fd5b50565b6000813590506106ec816106c6565b92915050565b6000602082840312156107085761070761068a565b5b6000610716848285016106dd565b91505092915050565b60008115159050919050565b6107348161071f565b82525050565b600060208201905061074f600083018461072b565b92915050565b6000819050919050565b61076881610755565b811461077357600080fd5b50565b6000813590506107858161075f565b92915050565b600060ff82169050919050565b6107a18161078b565b81146107ac57600080fd5b50565b6000813590506107be81610798565b92915050565b6000819050919050565b6107d7816107c4565b81146107e257600080fd5b50565b6000813590506107f4816107ce565b92915050565b600080600080600060a086880312156108165761081561068a565b5b600061082488828901610776565b9550506020610835888289016107af565b9450506040610846888289016107af565b9350506060610857888289016107e5565b9250506080610868888289016107e5565b9150509295509295909350565b600081519050919050565b600082825260208201905092915050565b60005b838110156108af578082015181840152602081019050610894565b838111156108be576000848401525b50505050565b6000601f19601f8301169050919050565b60006108e082610875565b6108ea8185610880565b93506108fa818560208601610891565b610903816108c4565b840191505092915050565b6000602082019050818103600083015261092881846108d5565b905092915050565b600080fd5b600080fd5b7f4e487b7100000000000000000000000000000000000000000000000000000000600052604160045260246000fd5b610972826108c4565b810181811067ffffffffffffffff821117156109915761099061093a565b5b80604052505050565b60006109a4610680565b90506109b08282610969565b919050565b600067ffffffffffffffff8211156109d0576109cf61093a565b5b6109d9826108c4565b9050602081019050919050565b82818337600083830152505050565b6000610a08610a03846109b5565b61099a565b905082815260208101848484011115610a2457610a23610935565b5b610a2f8482856109e6565b509392505050565b600082601f830112610a4c57610a4b610930565b5b8135610a5c8482602086016109f5565b91505092915050565b60008060008060808587031215610a7f57610a7e61068a565b5b6000610a8d87828801610776565b9450506020610a9e878288016106dd565b9350506040610aaf878288016107af565b925050606085013567ffffffffffffffff811115610ad057610acf61068f565b5b610adc87828801610a37565b91505092959194509250565b610af1816107c4565b82525050565b6000602082019050610b0c6000830184610ae8565b92915050565b610b1b81610755565b82525050565b610b2a8161078b565b82525050565b6000606082019050610b456000830186610ae8565b610b526020830185610b12565b610b5f6040830184610b21565b949350505050565b600081905092915050565b7f1901000000000000000000000000000000000000000000000000000000000000600082015250565b6000610ba8600283610b67565b9150610bb382610b72565b600282019050919050565b6000819050919050565b610bd9610bd4826107c4565b610bbe565b82525050565b6000610bea82610b9b565b9150610bf68285610bc8565b602082019150610c068284610bc8565b6020820191508190509392505050565b6000608082019050610c2b6000830187610ae8565b610c386020830186610b21565b610c456040830185610ae8565b610c526060830184610ae8565b95945050505050565b7f4e487b7100000000000000000000000000000000000000000000000000000000600052602160045260246000fd5b7f45434453413a20696e76616c6964207369676e61747572650000000000000000600082015250565b6000610cc0601883610880565b9150610ccb82610c8a565b602082019050919050565b60006020820190508181036000830152610cef81610cb3565b9050919050565b7f45434453413a20696e76616c6964207369676e6174757265206c656e67746800600082015250565b6000610d2c601f83610880565b9150610d3782610cf6565b602082019050919050565b60006020820190508181036000830152610d5b81610d1f565b9050919050565b7f45434453413a20696e76616c6964207369676e6174757265202773272076616c60008201527f7565000000000000000000000000000000000000000000000000000000000000602082015250565b6000610dbe602283610880565b9150610dc982610d62565b604082019050919050565b60006020820190508181036000830152610ded81610db1565b9050919050565b610dfd816106b4565b82525050565b600060a082019050610e186000830188610ae8565b610e256020830187610ae8565b610e326040830186610ae8565b610e3f6060830185610b12565b610e4c6080830184610df4565b969550505050505056fea26469706673582212208acc965c0b1f2aab4d8f7c0ea46b68251eeecfc15b8721fb9983b0a7d60f93e964736f6c634300080c0033",
  "linkReferences": {},
  "deployedLinkReferences": {}
}