{
  "_format": "hh-sol-artifact-1",
  "contractName": "MockOZ",
  "sourceName": "contracts/test/MockOZ.sol",
  "abi": [
    {
      "inputs": [
        {
          "internalType": "address",
          "name": "_owner",
          "type": "address"
        },
        {
          "internalType": "address",
          "name": "_target",
          "type": "address"
        },
        {
          "internalType": "address",
          "name": "_multisend",
          "type": "address"
        }
      ],
      "stateMutability": "nonpayable",
      "type": "constructor"
    },
    {
      "inputs": [],
      "name": "BALLOT_TYPEHASH",
      "outputs": [
        {
          "internalType": "bytes32",
          "name": "",
          "type": "bytes32"
        }
      ],
      "stateMutability": "view",
      "type": "function"
    },
    {
      "inputs": [
        {
          "internalType": "uint256",
          "name": "proposalId",
          "type": "uint256"
        },
        {
          "internalType": "address",
          "name": "account",
          "type": "address"
        },
        {
          "internalType": "uint8",
          "name": "support",
          "type": "uint8"
        },
        {
          "internalType": "string",
          "name": "reason",
          "type": "string"
        }
      ],
      "name": "castVote",
      "outputs": [],
      "stateMutability": "nonpayable",
      "type": "function"
    },
    {
      "inputs": [
        {
          "internalType": "uint256",
          "name": "proposalId",
          "type": "uint256"
        },
        {
          "internalType": "uint8",
          "name": "support",
          "type": "uint8"
        },
        {
          "internalType": "uint8",
          "name": "v",
          "type": "uint8"
        },
        {
          "internalType": "bytes32",
          "name": "r",
          "type": "bytes32"
        },
        {
          "internalType": "bytes32",
          "name": "s",
          "type": "bytes32"
        }
      ],
      "name": "castVoteBySig",
      "outputs": [],
      "stateMutability": "nonpayable",
      "type": "function"
    },
    {
      "inputs": [
        {
          "internalType": "address",
          "name": "",
          "type": "address"
        }
      ],
      "name": "hasVoted",
      "outputs": [
        {
          "internalType": "bool",
          "name": "",
          "type": "bool"
        }
      ],
      "stateMutability": "view",
      "type": "function"
    },
    {
      "inputs": [],
      "name": "multisend",
      "outputs": [
        {
          "internalType": "address",
          "name": "",
          "type": "address"
        }
      ],
      "stateMutability": "view",
      "type": "function"
    },
    {
      "inputs": [],
      "name": "owner",
      "outputs": [
        {
          "internalType": "address",
          "name": "",
          "type": "address"
        }
      ],
      "stateMutability": "view",
      "type": "function"
    },
    {
      "inputs": [],
      "name": "target",
      "outputs": [
        {
          "internalType": "address",
          "name": "",
          "type": "address"
        }
      ],
      "stateMutability": "view",
      "type": "function"
    },
    {
      "inputs": [],
      "name": "version",
      "outputs": [
        {
          "internalType": "string",
          "name": "",
          "type": "string"
        }
      ],
      "stateMutability": "view",
      "type": "function"
    }
  ],
  "bytecode": "0x6101406040526040518060400160405280600481526020017f7465737400000000000000000000000000000000000000000000000000000000815250600190805190602001906200005292919062000320565b503480156200006057600080fd5b50604051620015933803806200159383398181016040528101906200008691906200043a565b600180546200009590620004c5565b80601f0160208091040260200160405190810160405280929190818152602001828054620000c390620004c5565b8015620001145780601f10620000e85761010080835404028352916020019162000114565b820191906000526020600020905b815481529060010190602001808311620000f657829003601f168201915b505050505062000129620002a760201b60201c565b60008280519060200120905060008280519060200120905060007f8b73c3c69bb8fe3d512ecc4cf759cc79239f7b179b0ffacaa9a75d522b39400f90508260e081815250508161010081815250504660a0818152505062000192818484620002e460201b60201c565b608081815250503073ffffffffffffffffffffffffffffffffffffffff1660c08173ffffffffffffffffffffffffffffffffffffffff1681525050806101208181525050505050505082600260006101000a81548173ffffffffffffffffffffffffffffffffffffffff021916908373ffffffffffffffffffffffffffffffffffffffff16021790555081600460006101000a81548173ffffffffffffffffffffffffffffffffffffffff021916908373ffffffffffffffffffffffffffffffffffffffff16021790555080600360006101000a81548173ffffffffffffffffffffffffffffffffffffffff021916908373ffffffffffffffffffffffffffffffffffffffff1602179055505050506200059f565b60606040518060400160405280600181526020017f3100000000000000000000000000000000000000000000000000000000000000815250905090565b600083838346306040516020016200030195949392919062000542565b6040516020818303038152906040528051906020012090509392505050565b8280546200032e90620004c5565b90600052602060002090601f0160209004810192826200035257600085556200039e565b82601f106200036d57805160ff19168380011785556200039e565b828001600101855582156200039e579182015b828111156200039d57825182559160200191906001019062000380565b5b509050620003ad9190620003b1565b5090565b5b80821115620003cc576000816000905550600101620003b2565b5090565b600080fd5b600073ffffffffffffffffffffffffffffffffffffffff82169050919050565b60006200040282620003d5565b9050919050565b6200041481620003f5565b81146200042057600080fd5b50565b600081519050620004348162000409565b92915050565b600080600060608486031215620004565762000455620003d0565b5b6000620004668682870162000423565b9350506020620004798682870162000423565b92505060406200048c8682870162000423565b9150509250925092565b7f4e487b7100000000000000000000000000000000000000000000000000000000600052602260045260246000fd5b60006002820490506001821680620004de57607f821691505b60208210811415620004f557620004f462000496565b5b50919050565b6000819050919050565b6200051081620004fb565b82525050565b6000819050919050565b6200052b8162000516565b82525050565b6200053c81620003f5565b82525050565b600060a08201905062000559600083018862000505565b62000568602083018762000505565b62000577604083018662000505565b62000586606083018562000520565b62000595608083018462000531565b9695505050505050565b60805160a05160c05160e0516101005161012051610fa4620005ef60003960006104530152600061049501526000610474015260006103a9015260006103ff015260006104280152610fa46000f3fe608060405234801561001057600080fd5b50600436106100885760003560e01c80638da5cb5b1161005b5780638da5cb5b14610115578063d4b8399214610133578063dd063f9014610151578063deaaa7cc1461016d57610088565b806309eef43e1461008d578063294402cc146100bd5780633bccf4fd146100db57806354fd4d50146100f7575b600080fd5b6100a760048036038101906100a291906107ef565b61018b565b6040516100b49190610837565b60405180910390f35b6100c56101ab565b6040516100d29190610861565b60405180910390f35b6100f560048036038101906100f09190610921565b6101d1565b005b6100ff610256565b60405161010c9190610a35565b60405180910390f35b61011d610293565b60405161012a9190610861565b60405180910390f35b61013b6102b9565b6040516101489190610861565b60405180910390f35b61016b60048036038101906101669190610b8c565b6102df565b005b61017561033c565b6040516101829190610c1e565b60405180910390f35b60006020528060005260406000206000915054906101000a900460ff1681565b600360009054906101000a900473ffffffffffffffffffffffffffffffffffffffff1681565b60006102316102297f150214d74d59b7d1e90c73fc22ef3d991dd0a76b046543d4d80ab92d2a50328f888860405160200161020e93929190610c57565b60405160208183030381529060405280519060200120610360565b85858561037a565b905061024e868287604051806020016040528060008152506102df565b505050505050565b60606040518060400160405280600181526020017f3100000000000000000000000000000000000000000000000000000000000000815250905090565b600260009054906101000a900473ffffffffffffffffffffffffffffffffffffffff1681565b600460009054906101000a900473ffffffffffffffffffffffffffffffffffffffff1681565b60016000808573ffffffffffffffffffffffffffffffffffffffff1673ffffffffffffffffffffffffffffffffffffffff16815260200190815260200160002060006101000a81548160ff02191690831515021790555050505050565b7f150214d74d59b7d1e90c73fc22ef3d991dd0a76b046543d4d80ab92d2a50328f81565b600061037361036d6103a5565b836104bf565b9050919050565b600080600061038b878787876104f2565b91509150610398816105d5565b8192505050949350505050565b60007f000000000000000000000000000000000000000000000000000000000000000073ffffffffffffffffffffffffffffffffffffffff163073ffffffffffffffffffffffffffffffffffffffff1614801561042157507f000000000000000000000000000000000000000000000000000000000000000046145b1561044e577f000000000000000000000000000000000000000000000000000000000000000090506104bc565b6104b97f00000000000000000000000000000000000000000000000000000000000000007f00000000000000000000000000000000000000000000000000000000000000007f0000000000000000000000000000000000000000000000000000000000000000610743565b90505b90565b600082826040516020016104d4929190610d06565b60405160208183030381529060405280519060200120905092915050565b6000807f7fffffffffffffffffffffffffffffff5d576e7357a4501ddfe92f46681b20a08360001c111561052d5760006003915091506105cc565b6000600187878787604051600081526020016040526040516105529493929190610d3d565b6020604051602081039080840390855afa158015610574573d6000803e3d6000fd5b505050602060405103519050600073ffffffffffffffffffffffffffffffffffffffff168173ffffffffffffffffffffffffffffffffffffffff1614156105c3576000600192509250506105cc565b80600092509250505b94509492505050565b600060048111156105e9576105e8610d82565b5b8160048111156105fc576105fb610d82565b5b141561060757610740565b6001600481111561061b5761061a610d82565b5b81600481111561062e5761062d610d82565b5b141561066f576040517f08c379a000000000000000000000000000000000000000000000000000000000815260040161066690610dfd565b60405180910390fd5b6002600481111561068357610682610d82565b5b81600481111561069657610695610d82565b5b14156106d7576040517f08c379a00000000000000000000000000000000000000000000000000000000081526004016106ce90610e69565b60405180910390fd5b600360048111156106eb576106ea610d82565b5b8160048111156106fe576106fd610d82565b5b141561073f576040517f08c379a000000000000000000000000000000000000000000000000000000000815260040161073690610efb565b60405180910390fd5b5b50565b6000838383463060405160200161075e959493929190610f1b565b6040516020818303038152906040528051906020012090509392505050565b6000604051905090565b600080fd5b600080fd5b600073ffffffffffffffffffffffffffffffffffffffff82169050919050565b60006107bc82610791565b9050919050565b6107cc816107b1565b81146107d757600080fd5b50565b6000813590506107e9816107c3565b92915050565b60006020828403121561080557610804610787565b5b6000610813848285016107da565b91505092915050565b60008115159050919050565b6108318161081c565b82525050565b600060208201905061084c6000830184610828565b92915050565b61085b816107b1565b82525050565b60006020820190506108766000830184610852565b92915050565b6000819050919050565b61088f8161087c565b811461089a57600080fd5b50565b6000813590506108ac81610886565b92915050565b600060ff82169050919050565b6108c8816108b2565b81146108d357600080fd5b50565b6000813590506108e5816108bf565b92915050565b6000819050919050565b6108fe816108eb565b811461090957600080fd5b50565b60008135905061091b816108f5565b92915050565b600080600080600060a0868803121561093d5761093c610787565b5b600061094b8882890161089d565b955050602061095c888289016108d6565b945050604061096d888289016108d6565b935050606061097e8882890161090c565b925050608061098f8882890161090c565b9150509295509295909350565b600081519050919050565b600082825260208201905092915050565b60005b838110156109d65780820151818401526020810190506109bb565b838111156109e5576000848401525b50505050565b6000601f19601f8301169050919050565b6000610a078261099c565b610a1181856109a7565b9350610a218185602086016109b8565b610a2a816109eb565b840191505092915050565b60006020820190508181036000830152610a4f81846109fc565b905092915050565b600080fd5b600080fd5b7f4e487b7100000000000000000000000000000000000000000000000000000000600052604160045260246000fd5b610a99826109eb565b810181811067ffffffffffffffff82111715610ab857610ab7610a61565b5b80604052505050565b6000610acb61077d565b9050610ad78282610a90565b919050565b600067ffffffffffffffff821115610af757610af6610a61565b5b610b00826109eb565b9050602081019050919050565b82818337600083830152505050565b6000610b2f610b2a84610adc565b610ac1565b905082815260208101848484011115610b4b57610b4a610a5c565b5b610b56848285610b0d565b509392505050565b600082601f830112610b7357610b72610a57565b5b8135610b83848260208601610b1c565b91505092915050565b60008060008060808587031215610ba657610ba5610787565b5b6000610bb48782880161089d565b9450506020610bc5878288016107da565b9350506040610bd6878288016108d6565b925050606085013567ffffffffffffffff811115610bf757610bf661078c565b5b610c0387828801610b5e565b91505092959194509250565b610c18816108eb565b82525050565b6000602082019050610c336000830184610c0f565b92915050565b610c428161087c565b82525050565b610c51816108b2565b82525050565b6000606082019050610c6c6000830186610c0f565b610c796020830185610c39565b610c866040830184610c48565b949350505050565b600081905092915050565b7f1901000000000000000000000000000000000000000000000000000000000000600082015250565b6000610ccf600283610c8e565b9150610cda82610c99565b600282019050919050565b6000819050919050565b610d00610cfb826108eb565b610ce5565b82525050565b6000610d1182610cc2565b9150610d1d8285610cef565b602082019150610d2d8284610cef565b6020820191508190509392505050565b6000608082019050610d526000830187610c0f565b610d5f6020830186610c48565b610d6c6040830185610c0f565b610d796060830184610c0f565b95945050505050565b7f4e487b7100000000000000000000000000000000000000000000000000000000600052602160045260246000fd5b7f45434453413a20696e76616c6964207369676e61747572650000000000000000600082015250565b6000610de76018836109a7565b9150610df282610db1565b602082019050919050565b60006020820190508181036000830152610e1681610dda565b9050919050565b7f45434453413a20696e76616c6964207369676e6174757265206c656e67746800600082015250565b6000610e53601f836109a7565b9150610e5e82610e1d565b602082019050919050565b60006020820190508181036000830152610e8281610e46565b9050919050565b7f45434453413a20696e76616c6964207369676e6174757265202773272076616c60008201527f7565000000000000000000000000000000000000000000000000000000000000602082015250565b6000610ee56022836109a7565b9150610ef082610e89565b604082019050919050565b60006020820190508181036000830152610f1481610ed8565b9050919050565b600060a082019050610f306000830188610c0f565b610f3d6020830187610c0f565b610f4a6040830186610c0f565b610f576060830185610c39565b610f646080830184610852565b969550505050505056fea2646970667358221220f24be6292036e1efc6cfa89d7e4077722684726b23c4c3793e9f8ec273f0251264736f6c634300080c0033",
  "linkReferences": {},
  "deployedLinkReferences": {}
}