{
  "_format": "hh-sol-artifact-1",
  "contractName": "MockOZ",
  "sourceName": "contracts/test/MockOZ.sol",
  "abi": [
    {
      "inputs": [
        {
          "internalType": "uint256",
          "name": "proposalId",
          "type": "uint256"
        },
        {
          "internalType": "address",
          "name": "account",
          "type": "address"
        },
        {
          "internalType": "uint8",
          "name": "support",
          "type": "uint8"
        },
        {
          "internalType": "string",
          "name": "reason",
          "type": "string"
        }
      ],
      "name": "castVote",
      "outputs": [],
      "stateMutability": "nonpayable",
      "type": "function"
    },
    {
      "inputs": [
        {
          "internalType": "address",
          "name": "",
          "type": "address"
        }
      ],
      "name": "hasVoted",
      "outputs": [
        {
          "internalType": "bool",
          "name": "",
          "type": "bool"
        }
      ],
      "stateMutability": "view",
      "type": "function"
    }
  ],
  "bytecode": "0x608060405234801561001057600080fd5b50610447806100206000396000f3fe608060405234801561001057600080fd5b50600436106100365760003560e01c806309eef43e1461003b578063dd063f901461006b575b600080fd5b61005560048036038101906100509190610176565b610087565b60405161006291906101be565b60405180910390f35b6100856004803603810190610080919061038e565b6100a7565b005b60006020528060005260406000206000915054906101000a900460ff1681565b60016000803373ffffffffffffffffffffffffffffffffffffffff1673ffffffffffffffffffffffffffffffffffffffff16815260200190815260200160002060006101000a81548160ff02191690831515021790555050505050565b6000604051905090565b600080fd5b600080fd5b600073ffffffffffffffffffffffffffffffffffffffff82169050919050565b600061014382610118565b9050919050565b61015381610138565b811461015e57600080fd5b50565b6000813590506101708161014a565b92915050565b60006020828403121561018c5761018b61010e565b5b600061019a84828501610161565b91505092915050565b60008115159050919050565b6101b8816101a3565b82525050565b60006020820190506101d360008301846101af565b92915050565b6000819050919050565b6101ec816101d9565b81146101f757600080fd5b50565b600081359050610209816101e3565b92915050565b600060ff82169050919050565b6102258161020f565b811461023057600080fd5b50565b6000813590506102428161021c565b92915050565b600080fd5b600080fd5b6000601f19601f8301169050919050565b7f4e487b7100000000000000000000000000000000000000000000000000000000600052604160045260246000fd5b61029b82610252565b810181811067ffffffffffffffff821117156102ba576102b9610263565b5b80604052505050565b60006102cd610104565b90506102d98282610292565b919050565b600067ffffffffffffffff8211156102f9576102f8610263565b5b61030282610252565b9050602081019050919050565b82818337600083830152505050565b600061033161032c846102de565b6102c3565b90508281526020810184848401111561034d5761034c61024d565b5b61035884828561030f565b509392505050565b600082601f83011261037557610374610248565b5b813561038584826020860161031e565b91505092915050565b600080600080608085870312156103a8576103a761010e565b5b60006103b6878288016101fa565b94505060206103c787828801610161565b93505060406103d887828801610233565b925050606085013567ffffffffffffffff8111156103f9576103f8610113565b5b61040587828801610360565b9150509295919450925056fea26469706673582212201d118dfa7fe23c7e8c84e7acab4881cacc0a9d639ef5b64ec2e247c3ec4c4d7564736f6c634300080c0033",
  "linkReferences": {},
  "deployedLinkReferences": {}
}